:060000000A128A110C280F
:10000800FE00030EF0000A08F1000A128A154D2FAF
:100018000A128A110F28FB0183120313C901CA01AE
:10002800CB0183010A128A11552F83120313C601CB
:10003800C101C401C501B901BA01C201C301071157
:1000480001300A128A152B270A128A110A128A15F8
:1000580097270A128A1183120313C7002A3047060A
:10006800031D372838283A280711552A071D3D2827
:100078003E2861280A128A11F8230A128A117A087E
:1000880083120313C0007908BF003F0A031D5128DB
:10009800400A03195028512861283F0840040319D1
:1000A800562857286128003040020B3003193F02B8
:1000B80003185F2860286128071147080319652875
:1000C8006628362930304702031C6B286C28A6287E
:1000D8003A304702031871287228A6284608031DDB
:1000E80076287728A62800303A0204300319390206
:1000F80003187F288028A6284508F3004408F20042
:100108000A30F4000030F5000A128A1572270A1224
:100118008A118312031347087207AB0000300318D3
:1001280001307307AC002B08D03EC4002C0803181C
:10013800013EFF3EC5000130B9070318BA0A003076
:10014800BA0736292A304706031DAB28AC28AD2844
:10015800362944304706031DB228B3280329460828
:10016800031DB728B82836296430F2000030F300A0
:100178004508F5004408F4000A128A1113270A12E8
:100188008A11730883120313B4007208B300643031
:10019800A0000030A1004508A3004408A2000A12EC
:1001A8008A15C6270A128A11831203132108BC0074
:1001B8002008BB0000303C023C3003193B02031C02
:1001C800E628E728EB283B30BB000030BC003408A9
:1001D800F3003308F2003C30F4000030F5000A1256
:1001E8008A1572270A128A11831203133B087207B1
:1001F800C2003C0803183C0A7307C3003629413083
:100208004706031D0829092913294208430403192D
:100218000E290F2936290130C600C101362942307E
:100228004706031D182919292729460803191D29D6
:100238001E29362941080319222924290130252994
:100248000030C100362943304706031D2C292D29CB
:100258003629C601C101C201C301C401C501B901E2
:10026800BA0107114B0803193A293B295A29CB012E
:1002780046080319402941295A294108031D4529DF
:1002880046295A294208430403194B294C295A295B
:100298000130C2020030031CC303C30242084304F6
:1002A800031D572958295A29C6010715A101A10A72
:1002B80001300A128A15F1260A128A1183120313D1
:1002C8004608031968296929B7299830A40080309D
:1002D800A5000A128A11D6270A128A11831203135B
:1002E8004308A5004208A4002D30A6000A128A116E
:1002F800B2240A128A112D3083120313A40000308D
:10030800A5000A128A11D6270A128A111C308312F4
:100318000313A4008030A5000A128A11D6270A12F6
:100328008A1183120313A101A10A02300A128A1545
:10033800F1260A128A11831203134108031DA52905
:10034800A629A9293330B700AB292230B7003708CE
:10035800A4000030031D8030A5000A128A11D62798
:100368000A128A11492A9130A4008030A5000A1285
:100378008A11D6270A128A116430F2000030F3007D
:10038800831203134508F5004408F4000A128A1181
:1003980013270A128A11730883120313B60072080E
:1003A800B5006430A0000030A1004508A30044084F
:1003B800A2000A128A15C6270A128A118312031389
:1003C8002108BE002008BD0000303E023C30031961
:1003D8003D02031CF029F129F5293B30BD0000300E
:1003E800BE003608F3003508F2003C30F400003057
:1003F800F5000A128A1572270A128A11831203134A
:100408003D087207A4003E0803183E0A7307A500BA
:100418002D30A6000A128A11B2240A128A112D3030
:1004280083120313A4000030A5000A128A11D627EC
:100438000A128A111C3083120313A4008030A5000D
:100448000A128A11D6270A128A1183120313A101EC
:10045800A10A02300A128A15F1260A128A11831299
:1004680003130719382A392A3C2A1130B8003E2AC2
:100478005530B8003808A4000030031D8030A500AE
:100488000A128A11D6270A128A111A308312031304
:10049800AC00F730AB00AB0B4F2AAC0B4F2A542AF9
:1004A8002A28080083120313B2010F30B00000306D
:1004B800B10000300A128A15DB260A128A110F30A1
:1004C80083120313A6000030A70000300A128A1115
:1004D8003A250A128A1183120313AC01AD010A12DC
:1004E8008A1597270A128A1183120313AB002A3040
:1004F8002B06031D802A812A822A302B1430AC0750
:100508000318AD0A0030AD0700302D02783003190A
:100518002C02031C902A912ADD2AAC01AD010A1293
:100528008A11F8230A128A117A0883120313AF007A
:100538007908AE002E0A031DA62A2F0A0319A52A38
:10054800A62ADD2A2E082F040319AB2AAC2ADD2A95
:1005580000302F02103003192E020318B42AB52ACE
:10056800DD2AB2010F30B0000030B10000300A12AD
:100578008A15DB260A128A110F3083120313A6008C
:100588000030A70000300A128A113A250A128A118F
:100598008312031307154E3083120313AA00EA309F
:1005A800A900A90BD52AAA0BD52A00008312031388
:1005B80007114B080319E12AE22A242BCB01300842
:1005C80031040319E82AE92AEF2A0130B002003081
:1005D800031CB103B10230083104031DF42AF52AC3
:1005E800182B3208031DF92AFA2A012B0130B20010
:1005F8000A30B0000030B100122B3203031D052B66
:10060800062B0D2B0230B2000530B0000030B100CF
:10061800122BB2010F30B0000030B10032080A12BC
:100628008A15DB260A128A11831203133108A700E0
:100638003008A60032080A128A113A250A128A11CD
:100648001A3083120313AA00F730A900A90B2A2B2A
:10065800AA0B2A2B2F2B732A0800FF1B3B2B831373
:100668007F1883170008840A0319FF0A080003305B
:100678008A000408840A820700343134323433345F
:1006880041343434353436344234373438343934F8
:1006980043342A34303423344434523445344134D6
:1006A8004434593420342034203420342034203445
:1006B8002034203420342034203400345034413461
:1006C80055345334453444342034203420342034D1
:1006D8002034203420342034203420340034523460
:1006E80055344E344E3449344E3447342034203453
:1006F8002034203420342034203420342034003472
:1007080032343A34543469346D34653472342034B4
:100718002034203420342034203420342034203431
:100728000034483441344E344434203454344F3443
:100738002034533454344F3450342134203420344A
:100748002034003431343A345434723461346634E9
:1007580066346934633420344C346934673468341B
:1007680074342034003463346D3420343D343E34E2
:100778002034523445344434203400344334723401
:100788006F34733473343C343D340034523445345C
:100798004434203420342034003453344534543421
:1007A80020343A3420340034543449344D344534F8
:1007B8003A342034003447345234453445344E34C6
:1007C80020340034593445344C344C344F34573485
:1007D8000034543469346D3465343A340034733435
:1007E80020342034203400340B0D0B0D01398312D2
:1007F8000313A300831603130C0801398312031390
:10080800A4001008A5008B13831603130C10831281
:10081800031310109010101290128F018E011014F3
:10082800342C75300F02313003190E02031C1D2CB5
:100838001E2C342C101025089000240C831603134A
:10084800031C0C1003180C1483120313230C031C31
:100858008B1303188B17FF30F900FF30FA00B12C07
:100868008718372C382C152C101007103B2C8312A6
:1008780003130714023083120313A000A00B422CA9
:1008880000008312031307108F018E0110146B2CC4
:1008980075300F02313003190E02031C542C552CED
:1008A8006B2C101025089000240C83160313031CCE
:1008B8000C1003180C1483120313230C031C8B1342
:1008C80003188B17FF30F900FF30FA00B12C871C92
:1008D8006E2C6F2C4C2C8F018E017C2C75300F02E6
:1008E800313003190E02031C7A2C7B2C7C2C802CB3
:1008F80087187F2C802C722C10100F08A2000E086D
:10090800A10025089000240C83160313031C0C1067
:1009180003180C1483120313230C031C8B130318E2
:100928008B1721082204031D9A2C9B2CA02CFF3026
:10093800F900FF30FA00B12C3A30F2000030F30031
:100948002208F5002108F4000A128A1113270A1256
:100958008A117308FA007208F90008003C30F200A6
:100968000030F300831203132508F5002408F4006F
:100978000A128A1113270A128A11730883120313A1
:10098800A8007208A7003C30A0000030A10025088C
:10099800A3002408A2000A128A15C6270A128A117F
:1009A800831203132108AA002008A900260884003E
:1009B8000A30F2000030F3002808F5002708F40098
:1009C8000A128A1113270A128A117208303E8313F9
:1009D800800083120313260A84000A30A000003026
:1009E800A1002808A3002708A2000A128A15C62712
:1009F8000A128A11831203132008303E83138000E1
:100A08002608023E84003A3080002608033E84000F
:100A18000A30F2000030F3002A08F5002908F40033
:100A28000A128A1113270A128A117208303E831398
:100A38008000831203132608043E84000A30A000B5
:100A48000030A1002A08A3002908A2000A128A156A
:100A5800C6270A128A11831203132008303E831313
:100A680080002608053E84008001080083120313D5
:100A7800A800A101A10A01300A128A15F1260A125A
:100A88008A11831203132808031D4B2D4C2D562D54
:100A98008A30A4008030A5000A128A11D6270A12CB
:100AA8008A116E2D2803031D5A2D5B2D652D9F304D
:100AB800A4008030A5000A128A11D6270A128A11CA
:100AC8006E2DA630A4008030A5000A128A11D62700
:100AD8000A128A11AD3083120313A4008030A500D6
:100AE8000A128A11D6270A128A11831203132708B9
:100AF800A5002608A4000A128A1196270A128A114C
:100B0800B33083120313A4008030A5000A128A119F
:100B1800D6270A128A1183120313A101A10A0230EF
:100B28000A128A15F1260A128A11823083120313D7
:100B3800A4008030A5000A128A11D6270A128A1149
:100B48000F3083120313A4000030A5000A128A1183
:100B580096270A128A11773083120313A400803073
:100B6800A5000A128A11D6270A128A1108008316CC
:100B78000313880183120313880108108810823038
:100B880083120313A200DD30A100A10BC92DA20B13
:100B9800C92D03300A128A11CF260A128A1107308A
:100BA80083120313A2007C30A100A10BD92DA20B44
:100BB800D92D000003300A128A11CF260A128A1191
:100BC800073083120313A2007C30A100A10BEA2D89
:100BD800A20BEA2D000003300A128A11CF260A124E
:100BE8008A11073083120313A2007C30A100A10BE5
:100BF800FB2DA20BFB2D000002300A128A11CF2612
:100C08000A128A11073083120313A2007C30A10054
:100C1800A10B0C2EA20B0C2E000028300A128A15EC
:100C28002B270A128A110C300A128A152B270A124E
:100C38008A1101300A128A152B270A128A110630E6
:100C48000A128A152B270A128A11080001300A1283
:100C58008A152B270A128A1183120313A101A10AEC
:100C680001300A128A15F1260A128A116630831297
:100C78000313A4008030A5000A128A11D6270A128D
:100C88008A1183120313A101A10A02300A128A15DC
:100C9800F1260A128A11443083120313A40080300B
:100CA800A5000A128A11D6270A128A110A128A1571
:100CB80097270A128A1183120313A80031302806D5
:100CC800031D672E682E6A2E01307E2E32302806CC
:100CD800031D6F2E702E722E02307E2E1A30831254
:100CE8000313A700F730A600A60B782EA70B782EC3
:100CF8007D2E5A2E0800F501F0308312031386006A
:100D08001030F200750A8A2E0310F20DFF3E031D03
:100D1800882E7208FF3A86050630F200F20B922EF2
:100D28000000831203130608F4000F30F405F601DF
:100D38007408F200760AA22E0310F20CFF3E031D7F
:100D4800A02E7218A82EA92EBD2E7608F200023009
:100D58000310F20DFF3E031DAC2E01307207F300A5
:100D68007508730784000A128A113B230A128A1134
:100D7800CE2E0130F60704307602031CC42EC52E91
:100D88009C2E0130F50704307502031CCC2ECD2EA5
:100D9800802E00300800F50075080139F300F30EC5
:100DA8008312031308087306EF3973068800750861
:100DB800F3000310730C0139F400F40EF40D080865
:100DC8007406DF39740688007508F30002300310D2
:100DD800F30CFF3E031DEB2E73080139F400F40EEB
:100DE800F40DF40D08087406BF39740688007508F8
:100DF800F30003300310F30CFF3E031DFE2E7308AF
:100E08000139F400F40CF40C080874067F397406F0
:100E180088000A128A15B8260A128A110800F601F3
:100E2800F7017208730403191A2F1B2F502F013072
:100E3800F800272F01300310F20DF30DFF3E031DBC
:100E48001F2F0130F807F31F2A2F2B2F1E2F0130D9
:100E58000310F60DF70DFF3E031D2C2F73087502C6
:100E6800031D382F72087402031C3B2F3C2F432F9D
:100E78007208F4027308031CF503F50276140130B6
:100E88000310F30CF20CFF3E031D442F0130F8024F
:100E9800031D4F2F502F2B2F7708F3007608F200F1
:100EA80008000630831603139F00071187110712E5
:100EB80087128312031307118711071287120A1268
:100EC8008A11BB250A128A110A128A15AE260A123D
:100ED8008A110A128A159C260A128A110A128A1580
:100EE800C7260A128A110A128A112A260A128A1198
:100EF80083120313C8004803031D832F842F8A2FEE
:100F08000A128A1156220A128A11772F871107129C
:100F180087120A128A1119200A128A11772F0A12C7
:100F28008A110C280A3083120313A0000030A10094
:100F38000A30F2000030F3002508F5002408F40018
:100F48000A128A1113270A128A11730883120313CB
:100F5800A3007208A2000A128A15C6270A128A116B
:100F6800831203132008303E0A128A15A4260A1297
:100F78008A110A3083120313A0000030A10025084B
:100F8800A3002408A2000A128A15C6270A128A1189
:100F9800831203132008303E0A128A15A4260A1267
:100FA8008A110800ED2F2508FF00240884000A1282
:100FB8008A1131230A128A110A128A15A4260A12E2
:100FC8008A11013083120313A4070318A50A0030FD
:100FD800A507831203132508FF00240884000A12BA
:100FE8008A1131230A128A11003A031DFC2FFD2FA2
:040FF800D72F0800E7
:101D38008316031307108714831203130710080070
:101D4800FA007A08F60001300A128A150D270A12DD
:101D58008A1508000F308316031386008113F030AC
:101D68008312031386000800831203138814BC2E01
:101D7800BD2E00008312031388101A30F200F20BF4
:101D8800C32E000008008312031390101012901243
:101D98001010FC308F0018308E000C1083160313BF
:101DA8000C140B178B178312031310140800F2007E
:101DB800831203138711871207127208031DE52E79
:101DC800E62EE82E8715F02E7203031DEC2EED2E5D
:101DD800EF2E8716F02E0716080083120313A200B1
:101DE80022030319F82EF92EFE2E4030A3000030EE
:101DF800A400002FA301A4012308A5002108FF3E89
:101E0800A507250880380A128A152B270A128A1571
:101E18000800F800780C83120313031C0810031839
:101E280008147608F70004300310F70CFF3E031D72
:101E3800182F77080A128A11CF260A128A157608EF
:101E48000F390A128A11CF260A128A15080083123E
:101E58000313A0002008F60000300A128A150D2787
:101E68000A128A1583120313200303193C2F3D2FEE
:101E7800432F02302006031D422F432F4C2F0430DE
:101E8800FA00E430F900F90B472FFA0B472F00004E
:101E98000800831203130C1C522F532F6B2F0C10A6
:101EA800FC308F0018308E000130C9070318CA0AA9
:101EB8000030CA0703304A02E83003194902031CFC
:101EC800662F672F6B2FC901CA010130CB0071083B
:101ED8008A00700E8300FE0E7E0E0900F601F701DF
:101EE800721C772F782F7E2F7408F6070318F70ACD
:101EF8007508F70701300310F40DF50DFF3E031DBB
:101F08007F2F01300310F30CF20CFF3E031D862FC8
:101F180072087304031D912F922F742F7708F30012
:101F28007608F20008000A128A117F260A128A151A
:101F3800F90079080319A12FA22FBE2F7B08031DD2
:101F4800A62FA72FBE2F2730F800F530F700F70B84
:101F5800AB2FF80BAB2F0A128A117F260A128A15AB
:101F6800F90079080319B92FBA2FC42F7908FB0093
:101F78007908C52F7908031DC22FC32FC42FFB0171
:101F88000030080083120313200821040319CD2F01
:101F9800CE2FFB2F0130F900DA2F01300310A00DEE
:101FA800A10DFF3E031DD22F0130F907A11FDD2F20
:101FB800DE2FD12F21082302031DE42F200822023F
:101FC800031CE72FE82FEE2F2008A2022108031C8C
:101FD800A303A30201300310A10CA00CFF3E031DB4
:101FE800EF2F0130F902031DFA2FFB2FDE2F2308F4
:081FF800A1002208A00008006E
:08400000FF3FFF3FFF3FFF3FC0
:02400E00713F00
:00000001FF
